:03000000020AB23F
:0C0AB200787FE4F6D8FD758120020AF977
:100BBD00533A00554F005543004C4F004C430053E2
:100BCD00540053543100535432005354330042599E
:100BDD005000534146455F52454F50454E004341ED
:100BED00005245414459004F42004342004F4100DD
:100BFD0042555359004F4B00424C4F434B45440017
:100C0D004259504153535F4F4E0042595041535337
:050C1D005F4F46460098
:080D1900C102010D00010E00F2
:0D0CF6004394D85393274392015391FE225B
:040C47007F0A7E00A2
:100C4B00E4FDFCC3ED9FEC9E5015E4FBFA0BBB00DF
:0F0C5B00010AEB64784A70F50DBD00010C80E4CE
:010C6A002267
:100C8400759850438E01438E0475D6FF75D7E8439B
:050C94008E10D2992230
:0A0D0F00C2998F993099FDC2992214
:100C22008B0A8A0B890CAB0AAA0BA90C120C6B60FB
:100C320013050CE50C7002050B14F9120C6BFF1274
:050C42000D0F80E2220D
:090CE500120D2A7BFF7A0B79EB5A
:080CEE00120C227F0A020D0F17
:0C0D03003001047F3180027F30020D0FB0
:1009D7003002047F008009A28072917281E433FFA4
:1009E700EF24FF92007BFF7A0B79BD120C227BFF6D
:1009F7007A0B79C0120C22A2A79201120D037F2055
:100A0700120D0F7BFF7A0B79C3120C22A28292017F
:100A1700120D037F20120D0F7BFF7A0B79C6120C84
:100A270022A2C59201120D037F20120D0F7BFF7AC0
:100A37000B79C9120C22A2859201120D037F201295
:100A47000D0F7BFF7A0B79CC120C22A200920112B8
:100A57000D037F20120D0F7BFF7A0B79CF120C222B
:100A6700A2919201120D037F20120D0F7BFF7A0BCB
:100A770079D3120C22A2809201120D037F20120D4E
:100A87000F7BFF7A0B79D7120C22A2819201120DEC
:100A9700037F20120D0F7BFF7A0B79DB120C22A24A
:0B0AA700029201120D037F0A020D0FE6
:080D2200C284C283E4F50D2236
:080D2A00C287C286E4F50E2227
:070D32007F647E00020C4B00
:100C9900E50DB40206120D22120D32D284C28375FB
:030CA9000D012218
:100CAC00E50DB40106120D22120D32C284D28375E9
:030CBC000D022204
:100CBF00E50EB40206120D2A120D32D287C28675C6
:030CCF000E0122F1
:100CD200E50EB40106120D2A120D32C287D28675B4
:030CE2000E0222DD
:100B3E00120D2A7BFF7A0B79DF120CEE120D321298
:100B4E000CBF20A705120C4780F8120D2A7F648077
:100B5E00153002047F008009A28072917281E43305
:100B6E00FFEF60097F327E00120C4B80E47F2C7EFB
:100B7E0001120C4B120CD22082313002047F008005
:100B8E0009A28072917281E433FFEF6019120C4753
:100B9E003002047F008009A28072917281E433FFDB
:0F0BAE00EF6003020B3E120C4780CC120CE522C5
:10080000120CF6120C84D290020991E50DB4011974
:1008100030C5167F147E00120C4B30C50C120D2211
:100820007BFF7A0B79F4120CEEE50DB402193085DA
:10083000167F147E00120C4B30850C120D227BFFAC
:100840007A0B79F7120CEEE50EB4011930A7167F7A
:10085000147E00120C4B30A70C120D2A7BFF7A0B72
:1008600079FA120CEEE50EB4021030820D7F147E80
:1008700000120C4B308203120CE5E50E6402702B63
:10088000300203FF8009A28072917281E433FFEF8E
:100890006019120C473002047F008009A280729117
:1008A0007281E433FFEF6003120B3E2098030208CD
:0108B0000B3C
:1008B100C2988599083098FDC298859909E5086420
:1008C100557015E509644F700FE50EB401028034CF
:1008D100308523120CBF8038E5086455703BE5096B
:1008E10064437035300203FF8009A28072917281E6
:1008F100E433FFEF60097BFF7A0C79050209B1E56A
:100901000EB402097BFF7A0B79FD0209B1120CD2F8
:100911007BFF7A0C79020209B1E508B44C1EE509A6
:10092100B44F19E50DB401097BFF7A0B79FD02097A
:10093100B1120C997BFF7A0C79028074E508B44CF2
:100941001DE509B44318E50DB402087BFF7A0B7964
:10095100FD805D120CAC7BFF7A0C79028052E508B8
:10096100B4520BE509B453061209D702080BE50886
:10097100B44513E509B44D0E120D22120D2A7BFF69
:100981007A0C7902802AE508B45313E509B4520EB2
:10099100120D22120D2A7BFF7A0B79EE8012E508E7
:1009A100B44213E509B4590ED2027BFF7A0C790DDA
:1009B100120CEE02080BE5086442600302080BE525
:1009C10009644E600302080BC2027BFF7A0C79179F
:0309D100120CEE17
:0309D40002080B0B
:100ABE00020800E493A3F8E493A34003F68001F246
:100ACE0008DFF48029E493A3F85407240CC8C33339
:100ADE00C4540F4420C8834004F456800146F6DF08
:100AEE00E4800B0102040810204080900D19E47E72
:100AFE00019360BCA3FF543F30E509541FFEE493FD
:100B0E00A360010ECF54C025E060A840B8E493A3C3
:100B1E00FAE493A3F8E493A3C8C582C8CAC583CAEE
:100B2E00F0A3C8C582C8CAC583CADFE9DEE780BEA6
:010D210000D1
:100C6B00BB010689828A83E0225002E722BBFE0287
:090C7B00E32289828A83E49322BA
:00000001FF
